{
  "contractName": "Roll2Win",
  "abi": [
    {
      "constant": true,
      "inputs": [],
      "name": "playerCount",
      "outputs": [
        {
          "name": "",
          "type": "uint32"
        }
      ],
      "payable": false,
      "stateMutability": "view",
      "type": "function"
    },
    {
      "constant": true,
      "inputs": [],
      "name": "totalBetAmount",
      "outputs": [
        {
          "name": "",
          "type": "uint256"
        }
      ],
      "payable": false,
      "stateMutability": "view",
      "type": "function"
    },
    {
      "constant": true,
      "inputs": [],
      "name": "owner",
      "outputs": [
        {
          "name": "",
          "type": "address"
        }
      ],
      "payable": false,
      "stateMutability": "view",
      "type": "function"
    },
    {
      "constant": true,
      "inputs": [],
      "name": "targetPosition",
      "outputs": [
        {
          "name": "",
          "type": "uint32"
        }
      ],
      "payable": false,
      "stateMutability": "view",
      "type": "function"
    },
    {
      "constant": true,
      "inputs": [
        {
          "name": "",
          "type": "address"
        }
      ],
      "name": "players",
      "outputs": [
        {
          "name": "betAmount",
          "type": "uint256"
        },
        {
          "name": "inBoardOrder",
          "type": "uint256"
        },
        {
          "name": "currentPosition",
          "type": "uint256"
        },
        {
          "name": "count",
          "type": "uint256"
        },
        {
          "name": "status",
          "type": "uint8"
        },
        {
          "name": "player",
          "type": "address"
        },
        {
          "name": "isPresent",
          "type": "bool"
        }
      ],
      "payable": false,
      "stateMutability": "view",
      "type": "function"
    },
    {
      "inputs": [],
      "payable": false,
      "stateMutability": "nonpayable",
      "type": "constructor"
    },
    {
      "payable": true,
      "stateMutability": "payable",
      "type": "fallback"
    },
    {
      "anonymous": false,
      "inputs": [
        {
          "indexed": false,
          "name": "player",
          "type": "address"
        }
      ],
      "name": "Added",
      "type": "event"
    },
    {
      "anonymous": false,
      "inputs": [
        {
          "indexed": false,
          "name": "player",
          "type": "address"
        }
      ],
      "name": "Won",
      "type": "event"
    },
    {
      "anonymous": false,
      "inputs": [
        {
          "indexed": false,
          "name": "player",
          "type": "address"
        }
      ],
      "name": "Lost",
      "type": "event"
    },
    {
      "anonymous": false,
      "inputs": [
        {
          "indexed": false,
          "name": "player",
          "type": "address"
        }
      ],
      "name": "Rolling",
      "type": "event"
    },
    {
      "anonymous": false,
      "inputs": [
        {
          "indexed": false,
          "name": "player",
          "type": "address"
        }
      ],
      "name": "Done",
      "type": "event"
    },
    {
      "anonymous": false,
      "inputs": [
        {
          "indexed": false,
          "name": "player",
          "type": "address"
        },
        {
          "indexed": false,
          "name": "money",
          "type": "uint256"
        }
      ],
      "name": "NotSufficientBalance",
      "type": "event"
    },
    {
      "anonymous": false,
      "inputs": [
        {
          "indexed": false,
          "name": "player",
          "type": "address"
        }
      ],
      "name": "OwnerNotAllowed",
      "type": "event"
    },
    {
      "anonymous": false,
      "inputs": [
        {
          "indexed": false,
          "name": "totalPlayers",
          "type": "uint256"
        }
      ],
      "name": "RoomIsFull",
      "type": "event"
    },
    {
      "anonymous": false,
      "inputs": [
        {
          "indexed": false,
          "name": "player",
          "type": "address"
        },
        {
          "indexed": false,
          "name": "money",
          "type": "uint256"
        }
      ],
      "name": "NoRollingAllowed",
      "type": "event"
    },
    {
      "anonymous": false,
      "inputs": [
        {
          "indexed": false,
          "name": "boardstatus",
          "type": "uint8"
        },
        {
          "indexed": false,
          "name": "player",
          "type": "address"
        }
      ],
      "name": "BoardStatusEvent",
      "type": "event"
    },
    {
      "anonymous": false,
      "inputs": [
        {
          "indexed": false,
          "name": "diceNumber",
          "type": "uint8"
        }
      ],
      "name": "DiceRolled",
      "type": "event"
    },
    {
      "anonymous": false,
      "inputs": [],
      "name": "PlayerExists",
      "type": "event"
    },
    {
      "anonymous": false,
      "inputs": [],
      "name": "WaitForPlayers",
      "type": "event"
    },
    {
      "constant": false,
      "inputs": [],
      "name": "addPlayer",
      "outputs": [],
      "payable": true,
      "stateMutability": "payable",
      "type": "function"
    },
    {
      "constant": true,
      "inputs": [
        {
          "name": "addr",
          "type": "address"
        }
      ],
      "name": "playerExists",
      "outputs": [
        {
          "name": "",
          "type": "bool"
        }
      ],
      "payable": false,
      "stateMutability": "view",
      "type": "function"
    },
    {
      "constant": true,
      "inputs": [],
      "name": "isOwnerFunc",
      "outputs": [
        {
          "name": "",
          "type": "bool"
        }
      ],
      "payable": false,
      "stateMutability": "view",
      "type": "function"
    },
    {
      "constant": true,
      "inputs": [],
      "name": "isGameStart",
      "outputs": [
        {
          "name": "",
          "type": "bool"
        }
      ],
      "payable": false,
      "stateMutability": "view",
      "type": "function"
    },
    {
      "constant": true,
      "inputs": [],
      "name": "isRoomFull",
      "outputs": [
        {
          "name": "",
          "type": "bool"
        }
      ],
      "payable": false,
      "stateMutability": "view",
      "type": "function"
    },
    {
      "constant": true,
      "inputs": [],
      "name": "getBalance",
      "outputs": [
        {
          "name": "",
          "type": "uint256"
        }
      ],
      "payable": false,
      "stateMutability": "view",
      "type": "function"
    },
    {
      "constant": true,
      "inputs": [
        {
          "name": "add",
          "type": "address"
        }
      ],
      "name": "getPlayerBetAmount",
      "outputs": [
        {
          "name": "",
          "type": "uint256"
        }
      ],
      "payable": false,
      "stateMutability": "view",
      "type": "function"
    },
    {
      "constant": true,
      "inputs": [
        {
          "name": "add",
          "type": "address"
        }
      ],
      "name": "getPlayerInfo",
      "outputs": [
        {
          "name": "inBoardOrder",
          "type": "uint256"
        },
        {
          "name": "betAmount",
          "type": "uint256"
        },
        {
          "name": "currentPosition",
          "type": "uint256"
        },
        {
          "name": "count",
          "type": "uint256"
        },
        {
          "name": "status",
          "type": "uint256"
        }
      ],
      "payable": false,
      "stateMutability": "view",
      "type": "function"
    },
    {
      "constant": false,
      "inputs": [],
      "name": "rollDice",
      "outputs": [],
      "payable": false,
      "stateMutability": "nonpayable",
      "type": "function"
    }
  ],
  "bytecode": "0x60806040526009600260046101000a81548163ffffffff021916908363ffffffff160217905550600060035534801561003757600080fd5b506000600260006101000a81548163ffffffff021916908363ffffffff160217905550336000806101000a81548173ffffffffffffffffffffffffffffffffffffffff021916908373ffffffffffffffffffffffffffffffffffffffff16021790555061104b806100a96000396000f3006080604052600436106100d0576000357c0100000000000000000000000000000000000000000000000000000000900463ffffffff16806312065fe01461013e57806321f123791461016957806327b5db8a14610198578063302bcc57146101a257806359328401146101d9578063613f45941461024c578063835bf99a14610277578063837e7cc6146102a65780638da5cb5b146102bd578063ab728ae414610314578063b91ceaf01461034b578063bbe523001461037a578063e2eb41ff146103d5578063e9bd6a9114610494575b6040517f08c379a00000000000000000000000000000000000000000000000000000000081526004018080602001828103825260128152602001807f536f6d65206572726f72206f636375726564000000000000000000000000000081525060200191505060405180910390fd5b34801561014a57600080fd5b506101536104eb565b6040518082815260200191505060405180910390f35b34801561017557600080fd5b5061017e61050a565b604051808215151515815260200191505060405180910390f35b6101a061053d565b005b3480156101ae57600080fd5b506101b76108ba565b604051808263ffffffff1663ffffffff16815260200191505060405180910390f35b3480156101e557600080fd5b5061021a600480360381019080803573ffffffffffffffffffffffffffffffffffffffff1690602001909291905050506108d0565b604051808681526020018581526020018481526020018381526020018281526020019550505050505060405180910390f35b34801561025857600080fd5b50610261610a61565b6040518082815260200191505060405180910390f35b34801561028357600080fd5b5061028c610a67565b604051808215151515815260200191505060405180910390f35b3480156102b257600080fd5b506102bb610acf565b005b3480156102c957600080fd5b506102d2610e44565b604051808273ffffffffffffffffffffffffffffffffffffffff1673ffffffffffffffffffffffffffffffffffffffff16815260200191505060405180910390f35b34801561032057600080fd5b50610329610e69565b604051808263ffffffff1663ffffffff16815260200191505060405180910390f35b34801561035757600080fd5b50610360610e7f565b604051808215151515815260200191505060405180910390f35b34801561038657600080fd5b506103bb600480360381019080803573ffffffffffffffffffffffffffffffffffffffff169060200190929190505050610eb3565b604051808215151515815260200191505060405180910390f35b3480156103e157600080fd5b50610416600480360381019080803573ffffffffffffffffffffffffffffffffffffffff169060200190929190505050610f1d565b6040518088815260200187815260200186815260200185815260200184600481111561043e57fe5b60ff1681526020018373ffffffffffffffffffffffffffffffffffffffff1673ffffffffffffffffffffffffffffffffffffffff1681526020018215151515815260200197505050505050505060405180910390f35b3480156104a057600080fd5b506104d5600480360381019080803573ffffffffffffffffffffffffffffffffffffffff169060200190929190505050610f99565b6040518082815260200191505060405180910390f35b60003073ffffffffffffffffffffffffffffffffffffffff1631905090565b600060028060009054906101000a900463ffffffff1663ffffffff161415610535576001905061053a565b600090505b90565b600080341115156105dc576040517f08c379a00000000000000000000000000000000000000000000000000000000081526004018080602001828103825260268152602001807f6d696e696d756d20616d6f756e74206e656564656420746f20706c617920746881526020017f652067616d65000000000000000000000000000000000000000000000000000081525060400191505060405180910390fd5b600015156105e8610e7f565b151514151561065f576040517f08c379a000000000000000000000000000000000000000000000000000000000815260040180806020018281038252601a8152602001807f526f6d6d2069732066756c6c2c2063616e206e6f74206a6f696e00000000000081525060200191505060405180910390fd5b61066833610eb3565b905080151561088a5760e0604051908101604052803481526020016001600260009054906101000a900463ffffffff160163ffffffff1681526020016000815260200160008152602001600060048111156106bf57fe5b81526020013373ffffffffffffffffffffffffffffffffffffffff16815260200160011515815250600160003373ffffffffffffffffffffffffffffffffffffffff1673ffffffffffffffffffffffffffffffffffffffff1681526020019081526020016000206000820151816000015560208201518160010155604082015181600201556060820151816003015560808201518160040160006101000a81548160ff0219169083600481111561077257fe5b021790555060a08201518160040160016101000a81548173ffffffffffffffffffffffffffffffffffffffff021916908373ffffffffffffffffffffffffffffffffffffffff16021790555060c08201518160040160156101000a81548160ff02191690831515021790555090505034600354016003819055506001600260009054906101000a900463ffffffff1601600260006101000a81548163ffffffff021916908363ffffffff1602179055507fdcfefddfe354ab15def7a2a6a8758e2ad4100c920318c627db94e29d833e156733604051808273ffffffffffffffffffffffffffffffffffffffff1673ffffffffffffffffffffffffffffffffffffffff16815260200191505060405180910390a16108b7565b7fcb23421a056abe121ffe69a96e8962c234c0b08549979e20b999150d05ec585260405160405180910390a15b50565b600260009054906101000a900463ffffffff1681565b6000806000806000600160008773ffffffffffffffffffffffffffffffffffffffff1673ffffffffffffffffffffffffffffffffffffffff168152602001908152602001600020600101549450600160008773ffffffffffffffffffffffffffffffffffffffff1673ffffffffffffffffffffffffffffffffffffffff168152602001908152602001600020600001549350600160008773ffffffffffffffffffffffffffffffffffffffff1673ffffffffffffffffffffffffffffffffffffffff168152602001908152602001600020600201549250600160008773ffffffffffffffffffffffffffffffffffffffff1673ffffffffffffffffffffffffffffffffffffffff168152602001908152602001600020600301549150600160008773ffffffffffffffffffffffffffffffffffffffff1673ffffffffffffffffffffffffffffffffffffffff16815260200190815260200160002060040160009054906101000a900460ff166004811115610a4757fe5b905084848484849450945094509450945091939590929450565b60035481565b60008060009054906101000a900473ffffffffffffffffffffffffffffffffffffffff1673ffffffffffffffffffffffffffffffffffffffff163373ffffffffffffffffffffffffffffffffffffffff161415610ac75760019050610acc565b600090505b90565b600080600260089054906101000a900460ff166004811115610aed57fe5b60036004811115610afa57fe5b14151515610b0757600080fd5b610b0f61050a565b91508115610e13576003600260086101000a81548160ff02191690836004811115610b3657fe5b02179055507fb19731e57ffab2b16344c95adf2405e025352f8c7c5c1ec0e51d56aa13b57085600260089054906101000a900460ff163360405180836004811115610b7d57fe5b60ff1681526020018273ffffffffffffffffffffffffffffffffffffffff1673ffffffffffffffffffffffffffffffffffffffff1681526020019250505060405180910390a1610bcb610fe5565b90507f0c8bf3212130e1e4a87bfa00a135c62ee611e96a4636982e97e9af4e01712a7581604051808260ff1660ff16815260200191505060405180910390a160018060003373ffffffffffffffffffffffffffffffffffffffff1673ffffffffffffffffffffffffffffffffffffffff1681526020019081526020016000206003015401600160003373ffffffffffffffffffffffffffffffffffffffff1673ffffffffffffffffffffffffffffffffffffffff168152602001908152602001600020600301819055508060ff16600160003373ffffffffffffffffffffffffffffffffffffffff1673ffffffffffffffffffffffffffffffffffffffff1681526020019081526020016000206002015401600160003373ffffffffffffffffffffffffffffffffffffffff1673ffffffffffffffffffffffffffffffffffffffff168152602001908152602001600020600201819055506004600260086101000a81548160ff02191690836004811115610d4257fe5b0217905550600260049054906101000a900463ffffffff1663ffffffff16600160003373ffffffffffffffffffffffffffffffffffffffff1673ffffffffffffffffffffffffffffffffffffffff16815260200190815260200160002060020154101515610e0e577ff4ec34d629bd19fe7c2b2142541d4574ed8b77466f7dc5acc7eb1e83ed66441a33604051808273ffffffffffffffffffffffffffffffffffffffff1673ffffffffffffffffffffffffffffffffffffffff16815260200191505060405180910390a15b610e40565b7f474ce1bb5ebe2b1a9be28eaa6d0ea8ecf82c27459513730b77ee658cb083405b60405160405180910390a15b5050565b6000809054906101000a900473ffffffffffffffffffffffffffffffffffffffff1681565b600260049054906101000a900463ffffffff1681565b600060028060009054906101000a900463ffffffff1663ffffffff16101515610eab5760019050610eb0565b600090505b90565b6000600160008373ffffffffffffffffffffffffffffffffffffffff1673ffffffffffffffffffffffffffffffffffffffff16815260200190815260200160002060040160159054906101000a900460ff1615610f135760019050610f18565b600090505b919050565b60016020528060005260406000206000915090508060000154908060010154908060020154908060030154908060040160009054906101000a900460ff16908060040160019054906101000a900473ffffffffffffffffffffffffffffffffffffffff16908060040160159054906101000a900460ff16905087565b6000600160008373ffffffffffffffffffffffffffffffffffffffff1673ffffffffffffffffffffffffffffffffffffffff168152602001908152602001600020600001549050919050565b60008060074244604051808381526020018281526020019250505060405180910390206001900481151561101557fe5b06905080915050905600a165627a7a7230582026b811899733469535bf7c34d3de3f0f44c51fd72caba2ea1b3b31349fbaaaf90029",
  "source": "pragma solidity ^0.4.23;\n\ncontract Roll2Win{\n\n    address public owner;\n\n    /*\n        players hashmap with address as key and PlayerMetadata as structure in it\n    */\n     \n    mapping (address => PlayerMetadata ) public players;\n    uint32 public playerCount;\n    uint32 public targetPosition = 9;\n\n    /*\n        Four status to maintain the states of the player\n        Won - player has won the game, so no further playing for the room\n        Lost - player has lost the game, that means he cant play anymore\n        Rolling - player is rolling the dice, that means no other player can roll the dice for the room\n        Done - player has done rolling, now next player can roll the dice\n    */\n    enum Status {Added, Won, Lost, Rolling, Done}\n    \n    Status boardStatus;\n\n    /*\n        PlayerMetadata is struct which contains all the metadata information about the single player in an individual room\n        betAmount - betting amount player puts in the game\n        inBoardOrder - Position on the board like Ist, IInd, IIIrd at start\n        currentPosition - Current Index of the cell in the game\n        targetPosition - Target Index of the cell in the game\n        count - number of rolled dice from the player\n        player - address of the player in the room\n     */\n    \n    struct PlayerMetadata{\n        uint betAmount;\n        uint inBoardOrder;\n        uint currentPosition;\n        uint count;\n        Status status;\n        address player;\n        bool isPresent;\n    }\n    \n    //variable which holds the total betting amount\n    uint256 public totalBetAmount=0;\n\n    /**\n    All different kinds of events which will get generated in the game\n     */\n\n    event Added(address player);\n    event Won(address player);\n    event Lost(address player);\n    event Rolling(address player);\n    event Done(address player);\n\n    //when there is no sufficient balance then you can not play\n    event NotSufficientBalance(address player, uint money);\n\n    //when owner tried to enter into the game\n    event OwnerNotAllowed(address player);\n    \n    //event if room is full\n    event RoomIsFull(uint totalPlayers);\n\n    //when other person is rolling, then other can not roll in the same room\n    event NoRollingAllowed(address player, uint money);\n    \n    //event for the boardstatus change\n    event BoardStatusEvent(Status boardstatus, address player);\n    \n    //event for the number after rolling the dice\n    event DiceRolled(uint8 diceNumber);\n    \n    //event if player already exists in the system\n    event PlayerExists();\n    \n    //event if not enough players in the room, then wait\n    event WaitForPlayers();\n    /*\n        All the modifiers which will be used in the game\n     */\n    modifier checkMinimumBalance(){\n        require(msg.value > 0,\"minimum amount needed to play the game\");\n        _;\n    }\n\n\n    constructor() public{\n        playerCount = 0;\n        owner = msg.sender;\n    }\n    \n    modifier restricted {\n        require(msg.sender == owner);\n        _;\n    }\n    \n    modifier isDiceRolling{\n        require(uint(Status.Rolling) != uint(boardStatus));\n        _;\n    }\n    \n    modifier isRoomFullModifier{\n        require(isRoomFull() == false,\"Romm is full, can not join\");\n        _;\n    }\n\n    function addPlayer() public checkMinimumBalance isRoomFullModifier payable{\n        \n            bool isPlayerExists = playerExists(msg.sender);\n            if(!isPlayerExists){\n                //add the player to the players mapping\n                players[msg.sender] = PlayerMetadata(msg.value, playerCount+1, 0, 0, Status.Added, msg.sender, true);\n                \n                //increase the betAmount\n                totalBetAmount = totalBetAmount + msg.value;\n                \n                //increase the player count \n                playerCount = playerCount + 1;\n        \n                //emit the add event after player gets added\n                emit Added(msg.sender);\n            }else{\n                //its not reverting the balance as the player should be penalize for occupying the room more than once\n                emit PlayerExists();\n                \n            }\n\n    }\n\n    function playerExists(address addr) view public returns(bool){\n            if(players[addr].isPresent){\n                return true;\n            }else{\n                return false;\n            }   \n    }\n\n    function isOwnerFunc() view public returns(bool){\n        if(msg.sender == owner){\n            return true;\n        }\n        return false;\n    }\n    \n    function isGameStart() view public returns(bool){\n        if(playerCount == 2){\n            return true;\n        }else{\n            return false;\n        }\n    }\n\n    function isRoomFull() view public returns(bool){\n        if(playerCount >= 2){\n            return true;\n        }\n        return false;\n    }\n\n    function getBalance() public view returns(uint256){\n        return address(this).balance;\n    }\n    \n    function getPlayerBetAmount(address add) public view returns(uint256){\n        return players[add].betAmount;\n    }\n\n    function getPlayerInfo(address add) public view returns(uint inBoardOrder, uint betAmount, uint currentPosition, uint count, uint status ){\n        inBoardOrder = players[add].inBoardOrder;\n        betAmount = players[add].betAmount;\n        currentPosition = players[add].currentPosition;\n        count = players[add].count;\n        status = uint(players[add].status);\n        \n        return (inBoardOrder, betAmount, currentPosition, count, status);\n    }\n\n    function rollDice() public isDiceRolling {\n        \n            bool isGameReady = isGameStart();\n            if(isGameReady){\n                //set the status of the board to rolling\n                boardStatus = Status.Rolling;\n                emit BoardStatusEvent(boardStatus,msg.sender);\n                \n                uint8 diceNumber = generateRandomNumber();\n                emit DiceRolled(diceNumber);\n                \n                players[msg.sender].count = players[msg.sender].count+1;\n                players[msg.sender].currentPosition = players[msg.sender].currentPosition + diceNumber;\n                boardStatus = Status.Done;\n                if(players[msg.sender].currentPosition >= targetPosition){\n                    // totalBetAmount = ((totalBetAmount * 50)/1000000000000000000000);\n                    // msg.sender.transfer(1);\n                    // transferMoney(players[msg.sender].player, 0);\n                    emit Won(msg.sender);\n                }\n            }else{\n                //wait for other players event fired\n                emit WaitForPlayers();\n            }\n    }\n    \n     \n    \n    // function transferMoney(address receiver, uint256 amount) public {\n    //     // totalBetAmount = ((totalBetAmount * 50)/100);\n    //     // address(this).balance = uint(1000);\n    //     receiver.transfer(amount); //temporary add this solution\n    // }\n    \n    function generateRandomNumber() private view returns (uint8) {\n        uint8 diceNumber = uint8(uint256(keccak256(block.timestamp, block.difficulty))%7);\n        return diceNumber;\n    }\n    \n    function() private payable{\n        revert(\"Some error occured\");\n    }\n}",
  "sourcePath": "/Users/sandeepghosh/Desktop/blockchain/smart contracts/roll2win/contracts/Roll2Win.sol",
  "compiler": {
    "name": "solc",
    "version": "0.4.24+commit.e67f0147.Emscripten.clang"
  },
  "schemaVersion": "2.0.1",
  "updatedAt": "2019-01-26T08:17:30.205Z"
}